{
  "contractName": "CSAPlatform",
  "abi": [
    {
      "inputs": [],
      "stateMutability": "nonpayable",
      "type": "constructor"
    },
    {
      "anonymous": false,
      "inputs": [
        {
          "indexed": true,
          "internalType": "address",
          "name": "farmerAddress",
          "type": "address"
        },
        {
          "indexed": false,
          "internalType": "string",
          "name": "name",
          "type": "string"
        },
        {
          "indexed": false,
          "internalType": "string",
          "name": "location",
          "type": "string"
        }
      ],
      "name": "FarmerRegistered",
      "type": "event"
    },
    {
      "anonymous": false,
      "inputs": [
        {
          "indexed": false,
          "internalType": "uint256",
          "name": "produceId",
          "type": "uint256"
        },
        {
          "indexed": false,
          "internalType": "string",
          "name": "name",
          "type": "string"
        },
        {
          "indexed": false,
          "internalType": "string",
          "name": "description",
          "type": "string"
        }
      ],
      "name": "ProduceListed",
      "type": "event"
    },
    {
      "anonymous": false,
      "inputs": [
        {
          "indexed": false,
          "internalType": "uint256",
          "name": "produceId",
          "type": "uint256"
        },
        {
          "indexed": true,
          "internalType": "address",
          "name": "buyer",
          "type": "address"
        },
        {
          "indexed": false,
          "internalType": "string",
          "name": "produceName",
          "type": "string"
        },
        {
          "indexed": false,
          "internalType": "uint256",
          "name": "price",
          "type": "uint256"
        }
      ],
      "name": "ProducePurchased",
      "type": "event"
    },
    {
      "inputs": [
        {
          "internalType": "address",
          "name": "",
          "type": "address"
        }
      ],
      "name": "consumers",
      "outputs": [
        {
          "internalType": "address",
          "name": "consumerAddress",
          "type": "address"
        },
        {
          "internalType": "string",
          "name": "name",
          "type": "string"
        },
        {
          "internalType": "bool",
          "name": "isMember",
          "type": "bool"
        }
      ],
      "stateMutability": "view",
      "type": "function"
    },
    {
      "inputs": [
        {
          "internalType": "address",
          "name": "",
          "type": "address"
        }
      ],
      "name": "farmers",
      "outputs": [
        {
          "internalType": "address",
          "name": "farmerAddress",
          "type": "address"
        },
        {
          "internalType": "string",
          "name": "name",
          "type": "string"
        },
        {
          "internalType": "string",
          "name": "location",
          "type": "string"
        },
        {
          "internalType": "uint256",
          "name": "farmSize",
          "type": "uint256"
        },
        {
          "internalType": "string",
          "name": "farmingPractices",
          "type": "string"
        },
        {
          "internalType": "bool",
          "name": "isRegistered",
          "type": "bool"
        }
      ],
      "stateMutability": "view",
      "type": "function"
    },
    {
      "inputs": [
        {
          "internalType": "uint256",
          "name": "",
          "type": "uint256"
        }
      ],
      "name": "produce",
      "outputs": [
        {
          "internalType": "uint256",
          "name": "produceId",
          "type": "uint256"
        },
        {
          "internalType": "address",
          "name": "farmerAddress",
          "type": "address"
        },
        {
          "internalType": "string",
          "name": "name",
          "type": "string"
        },
        {
          "internalType": "string",
          "name": "description",
          "type": "string"
        },
        {
          "internalType": "string",
          "name": "plantingSchedule",
          "type": "string"
        },
        {
          "internalType": "string",
          "name": "harvestingSchedule",
          "type": "string"
        },
        {
          "internalType": "string",
          "name": "certifications",
          "type": "string"
        },
        {
          "internalType": "uint256",
          "name": "price",
          "type": "uint256"
        },
        {
          "internalType": "uint256",
          "name": "availability",
          "type": "uint256"
        }
      ],
      "stateMutability": "view",
      "type": "function"
    },
    {
      "inputs": [],
      "name": "produceCount",
      "outputs": [
        {
          "internalType": "uint256",
          "name": "",
          "type": "uint256"
        }
      ],
      "stateMutability": "view",
      "type": "function"
    },
    {
      "inputs": [
        {
          "internalType": "string",
          "name": "_name",
          "type": "string"
        },
        {
          "internalType": "string",
          "name": "_location",
          "type": "string"
        },
        {
          "internalType": "uint256",
          "name": "_farmSize",
          "type": "uint256"
        },
        {
          "internalType": "string",
          "name": "_farmingPractices",
          "type": "string"
        }
      ],
      "name": "registerAsFarmer",
      "outputs": [],
      "stateMutability": "nonpayable",
      "type": "function"
    },
    {
      "inputs": [
        {
          "internalType": "string",
          "name": "_name",
          "type": "string"
        },
        {
          "internalType": "string",
          "name": "_description",
          "type": "string"
        },
        {
          "internalType": "string",
          "name": "_plantingSchedule",
          "type": "string"
        },
        {
          "internalType": "string",
          "name": "_harvestingSchedule",
          "type": "string"
        },
        {
          "internalType": "string",
          "name": "_certifications",
          "type": "string"
        },
        {
          "internalType": "uint256",
          "name": "_price",
          "type": "uint256"
        }
      ],
      "name": "listProduce",
      "outputs": [],
      "stateMutability": "nonpayable",
      "type": "function"
    },
    {
      "inputs": [
        {
          "internalType": "string",
          "name": "_name",
          "type": "string"
        }
      ],
      "name": "becomeMember",
      "outputs": [],
      "stateMutability": "nonpayable",
      "type": "function"
    },
    {
      "inputs": [
        {
          "internalType": "uint256",
          "name": "_produceId",
          "type": "uint256"
        }
      ],
      "name": "purchaseProduce",
      "outputs": [],
      "stateMutability": "payable",
      "type": "function"
    },
    {
      "inputs": [
        {
          "internalType": "uint256",
          "name": "_produceId",
          "type": "uint256"
        }
      ],
      "name": "getProduceDetails",
      "outputs": [
        {
          "components": [
            {
              "internalType": "uint256",
              "name": "produceId",
              "type": "uint256"
            },
            {
              "internalType": "address",
              "name": "farmerAddress",
              "type": "address"
            },
            {
              "internalType": "string",
              "name": "name",
              "type": "string"
            },
            {
              "internalType": "string",
              "name": "description",
              "type": "string"
            },
            {
              "internalType": "string",
              "name": "plantingSchedule",
              "type": "string"
            },
            {
              "internalType": "string",
              "name": "harvestingSchedule",
              "type": "string"
            },
            {
              "internalType": "string",
              "name": "certifications",
              "type": "string"
            },
            {
              "internalType": "uint256",
              "name": "price",
              "type": "uint256"
            },
            {
              "internalType": "uint256",
              "name": "availability",
              "type": "uint256"
            }
          ],
          "internalType": "struct CSAPlatform.Produce",
          "name": "",
          "type": "tuple"
        }
      ],
      "stateMutability": "view",
      "type": "function"
    },
    {
      "inputs": [
        {
          "internalType": "address",
          "name": "_farmerAddress",
          "type": "address"
        }
      ],
      "name": "getFarmerDetails",
      "outputs": [
        {
          "components": [
            {
              "internalType": "address",
              "name": "farmerAddress",
              "type": "address"
            },
            {
              "internalType": "string",
              "name": "name",
              "type": "string"
            },
            {
              "internalType": "string",
              "name": "location",
              "type": "string"
            },
            {
              "internalType": "uint256",
              "name": "farmSize",
              "type": "uint256"
            },
            {
              "internalType": "string",
              "name": "farmingPractices",
              "type": "string"
            },
            {
              "internalType": "bool",
              "name": "isRegistered",
              "type": "bool"
            }
          ],
          "internalType": "struct CSAPlatform.Farmer",
          "name": "",
          "type": "tuple"
        }
      ],
      "stateMutability": "view",
      "type": "function"
    },
    {
      "inputs": [
        {
          "internalType": "address",
          "name": "_consumerAddress",
          "type": "address"
        }
      ],
      "name": "getConsumerDetails",
      "outputs": [
        {
          "components": [
            {
              "internalType": "address",
              "name": "consumerAddress",
              "type": "address"
            },
            {
              "internalType": "string",
              "name": "name",
              "type": "string"
            },
            {
              "internalType": "bool",
              "name": "isMember",
              "type": "bool"
            }
          ],
          "internalType": "struct CSAPlatform.Consumer",
          "name": "",
          "type": "tuple"
        }
      ],
      "stateMutability": "view",
      "type": "function"
    }
  ],
  "bytecode": "0x60806040523480156200001157600080fd5b506040518060c001604052803373ffffffffffffffffffffffffffffffffffffffff1681526020016040518060400160405280600581526020017f4f776e657200000000000000000000000000000000000000000000000000000081525081526020016040518060400160405280600881526020017f4c6f636174696f6e0000000000000000000000000000000000000000000000008152508152602001606481526020016040518060400160405280600b81526020017f5375737461696e61626c650000000000000000000000000000000000000000008152508152602001600115158152506000803373ffffffffffffffffffffffffffffffffffffffff1673ffffffffffffffffffffffffffffffffffffffff16815260200190815260200160002060008201518160000160006101000a81548173ffffffffffffffffffffffffffffffffffffffff021916908373ffffffffffffffffffffffffffffffffffffffff16021790555060208201518160010190805190602001906200019b9291906200025b565b506040820151816002019080519060200190620001ba9291906200025b565b50606082015181600301556080820151816004019080519060200190620001e39291906200025b565b5060a08201518160050160006101000a81548160ff0219169083151502179055509050503373ffffffffffffffffffffffffffffffffffffffff167f851322da2e414e9965ce5ecef6890861b23f27fe84bd9646b7de8aea70efcb566040516200024d9062000359565b60405180910390a262000458565b8280546200026990620003a1565b90600052602060002090601f0160209004810192826200028d5760008555620002d9565b82601f10620002a857805160ff1916838001178555620002d9565b82800160010185558215620002d9579182015b82811115620002d8578251825591602001919060010190620002bb565b5b509050620002e89190620002ec565b5090565b5b8082111562000307576000816000905550600101620002ed565b5090565b60006200031a60058362000390565b9150620003278262000406565b602082019050919050565b60006200034160088362000390565b91506200034e826200042f565b602082019050919050565b6000604082019050818103600083015262000374816200030b565b90508181036020830152620003898162000332565b9050919050565b600082825260208201905092915050565b60006002820490506001821680620003ba57607f821691505b60208210811415620003d157620003d0620003d7565b5b50919050565b7f4e487b7100000000000000000000000000000000000000000000000000000000600052602260045260246000fd5b7f4f776e6572000000000000000000000000000000000000000000000000000000600082015250565b7f4c6f636174696f6e000000000000000000000000000000000000000000000000600082015250565b61283380620004686000396000f3fe60806040526004361061009c5760003560e01c806365da56031161006457806365da5603146101b8578063769428d4146101fd578063a7bfbdeb14610228578063d335ccfa14610251578063df3061051461028e578063e940a91a146102b75761009c565b80630bf53668146100a15780632de8f688146100e057806331d7ba1e1461011d578063401b21681461015a57806348f13f5e1461019c575b600080fd5b3480156100ad57600080fd5b506100c860048036038101906100c39190611a77565b6102e0565b6040516100d79392919061209c565b60405180910390f35b3480156100ec57600080fd5b5061010760048036038101906101029190611a77565b6103bf565b6040516101149190612247565b60405180910390f35b34801561012957600080fd5b50610144600480360381019061013f9190611c8d565b61051b565b604051610151919061228b565b60405180910390f35b34801561016657600080fd5b50610181600480360381019061017c9190611a77565b610897565b604051610193969594939291906120da565b60405180910390f35b6101b660048036038101906101b19190611c8d565b610a98565b005b3480156101c457600080fd5b506101df60048036038101906101da9190611c8d565b610ca0565b6040516101f4999897969594939291906122c8565b60405180910390f35b34801561020957600080fd5b50610212610fb6565b60405161021f91906122ad565b60405180910390f35b34801561023457600080fd5b5061024f600480360381019061024a9190611ae1565b610fbc565b005b34801561025d57600080fd5b5061027860048036038101906102739190611a77565b61120f565b6040516102859190612269565b60405180910390f35b34801561029a57600080fd5b506102b560048036038101906102b09190611aa0565b611498565b005b3480156102c357600080fd5b506102de60048036038101906102d99190611be2565b611625565b005b60036020528060005260406000206000915090508060000160009054906101000a900473ffffffffffffffffffffffffffffffffffffffff16908060010180546103299061251d565b80601f01602080910402602001604051908101604052809291908181526020018280546103559061251d565b80156103a25780601f10610377576101008083540402835291602001916103a2565b820191906000526020600020905b81548152906001019060200180831161038557829003601f168201915b5050505050908060020160009054906101000a900460ff16905083565b6103c7611859565b600360008373ffffffffffffffffffffffffffffffffffffffff1673ffffffffffffffffffffffffffffffffffffffff1681526020019081526020016000206040518060600160405290816000820160009054906101000a900473ffffffffffffffffffffffffffffffffffffffff1673ffffffffffffffffffffffffffffffffffffffff1673ffffffffffffffffffffffffffffffffffffffff1681526020016001820180546104779061251d565b80601f01602080910402602001604051908101604052809291908181526020018280546104a39061251d565b80156104f05780601f106104c5576101008083540402835291602001916104f0565b820191906000526020600020905b8154815290600101906020018083116104d357829003601f168201915b505050505081526020016002820160009054906101000a900460ff1615151515815250509050919050565b610523611892565b6001600083815260200190815260200160002060405180610120016040529081600082015481526020016001820160009054906101000a900473ffffffffffffffffffffffffffffffffffffffff1673ffffffffffffffffffffffffffffffffffffffff1673ffffffffffffffffffffffffffffffffffffffff1681526020016002820180546105b29061251d565b80601f01602080910402602001604051908101604052809291908181526020018280546105de9061251d565b801561062b5780601f106106005761010080835404028352916020019161062b565b820191906000526020600020905b81548152906001019060200180831161060e57829003601f168201915b505050505081526020016003820180546106449061251d565b80601f01602080910402602001604051908101604052809291908181526020018280546106709061251d565b80156106bd5780601f10610692576101008083540402835291602001916106bd565b820191906000526020600020905b8154815290600101906020018083116106a057829003601f168201915b505050505081526020016004820180546106d69061251d565b80601f01602080910402602001604051908101604052809291908181526020018280546107029061251d565b801561074f5780601f106107245761010080835404028352916020019161074f565b820191906000526020600020905b81548152906001019060200180831161073257829003601f168201915b505050505081526020016005820180546107689061251d565b80601f01602080910402602001604051908101604052809291908181526020018280546107949061251d565b80156107e15780601f106107b6576101008083540402835291602001916107e1565b820191906000526020600020905b8154815290600101906020018083116107c457829003601f168201915b505050505081526020016006820180546107fa9061251d565b80601f01602080910402602001604051908101604052809291908181526020018280546108269061251d565b80156108735780601f1061084857610100808354040283529160200191610873565b820191906000526020600020905b81548152906001019060200180831161085657829003601f168201915b50505050508152602001600782015481526020016008820154815250509050919050565b60006020528060005260406000206000915090508060000160009054906101000a900473ffffffffffffffffffffffffffffffffffffffff16908060010180546108e09061251d565b80601f016020809104026020016040519081016040528092919081815260200182805461090c9061251d565b80156109595780601f1061092e57610100808354040283529160200191610959565b820191906000526020600020905b81548152906001019060200180831161093c57829003601f168201915b50505050509080600201805461096e9061251d565b80601f016020809104026020016040519081016040528092919081815260200182805461099a9061251d565b80156109e75780601f106109bc576101008083540402835291602001916109e7565b820191906000526020600020905b8154815290600101906020018083116109ca57829003601f168201915b505050505090806003015490806004018054610a029061251d565b80601f0160208091040260200160405190810160405280929190818152602001828054610a2e9061251d565b8015610a7b5780601f10610a5057610100808354040283529160200191610a7b565b820191906000526020600020905b815481529060010190602001808311610a5e57829003601f168201915b5050505050908060050160009054906101000a900460ff16905086565b600360003373ffffffffffffffffffffffffffffffffffffffff1673ffffffffffffffffffffffffffffffffffffffff16815260200190815260200160002060020160009054906101000a900460ff16610b27576040517f08c379a0000000000000000000000000000000000000000000000000000000008152600401610b1e906121c7565b60405180910390fd5b60006001600083815260200190815260200160002090506001816008015414610b85576040517f08c379a0000000000000000000000000000000000000000000000000000000008152600401610b7c90612227565b60405180910390fd5b8060070154341015610bcc576040517f08c379a0000000000000000000000000000000000000000000000000000000008152600401610bc390612187565b60405180910390fd5b60008160010160009054906101000a900473ffffffffffffffffffffffffffffffffffffffff1690508073ffffffffffffffffffffffffffffffffffffffff166108fc349081150290604051600060405180830381858888f19350505050158015610c3b573d6000803e3d6000fd5b50600082600801819055503373ffffffffffffffffffffffffffffffffffffffff167f9957ce7bee5543377c83b87109ef203cf694d7564ad19e23ddb378322bbbbdb5848460020134604051610c93939291906123bd565b60405180910390a2505050565b60016020528060005260406000206000915090508060000154908060010160009054906101000a900473ffffffffffffffffffffffffffffffffffffffff1690806002018054610cef9061251d565b80601f0160208091040260200160405190810160405280929190818152602001828054610d1b9061251d565b8015610d685780601f10610d3d57610100808354040283529160200191610d68565b820191906000526020600020905b815481529060010190602001808311610d4b57829003601f168201915b505050505090806003018054610d7d9061251d565b80601f0160208091040260200160405190810160405280929190818152602001828054610da99061251d565b8015610df65780601f10610dcb57610100808354040283529160200191610df6565b820191906000526020600020905b815481529060010190602001808311610dd957829003601f168201915b505050505090806004018054610e0b9061251d565b80601f0160208091040260200160405190810160405280929190818152602001828054610e379061251d565b8015610e845780601f10610e5957610100808354040283529160200191610e84565b820191906000526020600020905b815481529060010190602001808311610e6757829003601f168201915b505050505090806005018054610e999061251d565b80601f0160208091040260200160405190810160405280929190818152602001828054610ec59061251d565b8015610f125780601f10610ee757610100808354040283529160200191610f12565b820191906000526020600020905b815481529060010190602001808311610ef557829003601f168201915b505050505090806006018054610f279061251d565b80601f0160208091040260200160405190810160405280929190818152602001828054610f539061251d565b8015610fa05780601f10610f7557610100808354040283529160200191610fa0565b820191906000526020600020905b815481529060010190602001808311610f8357829003601f168201915b5050505050908060070154908060080154905089565b60025481565b6000803373ffffffffffffffffffffffffffffffffffffffff1673ffffffffffffffffffffffffffffffffffffffff16815260200190815260200160002060050160009054906101000a900460ff1661104a576040517f08c379a0000000000000000000000000000000000000000000000000000000008152600401611041906121a7565b60405180910390fd5b6002600081548092919061105d90612580565b919050555060405180610120016040528060025481526020013373ffffffffffffffffffffffffffffffffffffffff16815260200187815260200186815260200185815260200184815260200183815260200182815260200160018152506001600060025481526020019081526020016000206000820151816000015560208201518160010160006101000a81548173ffffffffffffffffffffffffffffffffffffffff021916908373ffffffffffffffffffffffffffffffffffffffff160217905550604082015181600201908051906020019061113d9291906118f4565b50606082015181600301908051906020019061115a9291906118f4565b5060808201518160040190805190602001906111779291906118f4565b5060a08201518160050190805190602001906111949291906118f4565b5060c08201518160060190805190602001906111b19291906118f4565b5060e0820151816007015561010082015181600801559050507f1da5093c1a47c319c8470507c128cdfb54fb5d1e3ffd124b74508ef3d49d150460025487876040516111ff93929190612378565b60405180910390a1505050505050565b61121761197a565b6000808373ffffffffffffffffffffffffffffffffffffffff1673ffffffffffffffffffffffffffffffffffffffff1681526020019081526020016000206040518060c00160405290816000820160009054906101000a900473ffffffffffffffffffffffffffffffffffffffff1673ffffffffffffffffffffffffffffffffffffffff1673ffffffffffffffffffffffffffffffffffffffff1681526020016001820180546112c69061251d565b80601f01602080910402602001604051908101604052809291908181526020018280546112f29061251d565b801561133f5780601f106113145761010080835404028352916020019161133f565b820191906000526020600020905b81548152906001019060200180831161132257829003601f168201915b505050505081526020016002820180546113589061251d565b80601f01602080910402602001604051908101604052809291908181526020018280546113849061251d565b80156113d15780601f106113a6576101008083540402835291602001916113d1565b820191906000526020600020905b8154815290600101906020018083116113b457829003601f168201915b50505050508152602001600382015481526020016004820180546113f49061251d565b80601f01602080910402602001604051908101604052809291908181526020018280546114209061251d565b801561146d5780601f106114425761010080835404028352916020019161146d565b820191906000526020600020905b81548152906001019060200180831161145057829003601f168201915b505050505081526020016005820160009054906101000a900460ff1615151515815250509050919050565b600360003373ffffffffffffffffffffffffffffffffffffffff1673ffffffffffffffffffffffffffffffffffffffff16815260200190815260200160002060020160009054906101000a900460ff1615611528576040517f08c379a000000000000000000000000000000000000000000000000000000000815260040161151f90612207565b60405180910390fd5b60405180606001604052803373ffffffffffffffffffffffffffffffffffffffff16815260200182815260200160011515815250600360003373ffffffffffffffffffffffffffffffffffffffff1673ffffffffffffffffffffffffffffffffffffffff16815260200190815260200160002060008201518160000160006101000a81548173ffffffffffffffffffffffffffffffffffffffff021916908373ffffffffffffffffffffffffffffffffffffffff16021790555060208201518160010190805190602001906115fe9291906118f4565b5060408201518160020160006101000a81548160ff02191690831515021790555090505050565b6000803373ffffffffffffffffffffffffffffffffffffffff1673ffffffffffffffffffffffffffffffffffffffff16815260200190815260200160002060050160009054906101000a900460ff16156116b4576040517f08c379a00000000000000000000000000000000000000000000000000000000081526004016116ab906121e7565b60405180910390fd5b6040518060c001604052803373ffffffffffffffffffffffffffffffffffffffff168152602001858152602001848152602001838152602001828152602001600115158152506000803373ffffffffffffffffffffffffffffffffffffffff1673ffffffffffffffffffffffffffffffffffffffff16815260200190815260200160002060008201518160000160006101000a81548173ffffffffffffffffffffffffffffffffffffffff021916908373ffffffffffffffffffffffffffffffffffffffff160217905550602082015181600101908051906020019061179b9291906118f4565b5060408201518160020190805190602001906117b89291906118f4565b506060820151816003015560808201518160040190805190602001906117df9291906118f4565b5060a08201518160050160006101000a81548160ff0219169083151502179055509050503373ffffffffffffffffffffffffffffffffffffffff167f851322da2e414e9965ce5ecef6890861b23f27fe84bd9646b7de8aea70efcb56858560405161184b929190612150565b60405180910390a250505050565b6040518060600160405280600073ffffffffffffffffffffffffffffffffffffffff168152602001606081526020016000151581525090565b60405180610120016040528060008152602001600073ffffffffffffffffffffffffffffffffffffffff168152602001606081526020016060815260200160608152602001606081526020016060815260200160008152602001600081525090565b8280546119009061251d565b90600052602060002090601f0160209004810192826119225760008555611969565b82601f1061193b57805160ff1916838001178555611969565b82800160010185558215611969579182015b8281111561196857825182559160200191906001019061194d565b5b50905061197691906119c8565b5090565b6040518060c00160405280600073ffffffffffffffffffffffffffffffffffffffff168152602001606081526020016060815260200160008152602001606081526020016000151581525090565b5b808211156119e15760008160009055506001016119c9565b5090565b60006119f86119f384612420565b6123fb565b905082815260208101848484011115611a1057600080fd5b611a1b8482856124db565b509392505050565b600081359050611a32816127cf565b92915050565b600082601f830112611a4957600080fd5b8135611a598482602086016119e5565b91505092915050565b600081359050611a71816127e6565b92915050565b600060208284031215611a8957600080fd5b6000611a9784828501611a23565b91505092915050565b600060208284031215611ab257600080fd5b600082013567ffffffffffffffff811115611acc57600080fd5b611ad884828501611a38565b91505092915050565b60008060008060008060c08789031215611afa57600080fd5b600087013567ffffffffffffffff811115611b1457600080fd5b611b2089828a01611a38565b965050602087013567ffffffffffffffff811115611b3d57600080fd5b611b4989828a01611a38565b955050604087013567ffffffffffffffff811115611b6657600080fd5b611b7289828a01611a38565b945050606087013567ffffffffffffffff811115611b8f57600080fd5b611b9b89828a01611a38565b935050608087013567ffffffffffffffff811115611bb857600080fd5b611bc489828a01611a38565b92505060a0611bd589828a01611a62565b9150509295509295509295565b60008060008060808587031215611bf857600080fd5b600085013567ffffffffffffffff811115611c1257600080fd5b611c1e87828801611a38565b945050602085013567ffffffffffffffff811115611c3b57600080fd5b611c4787828801611a38565b9350506040611c5887828801611a62565b925050606085013567ffffffffffffffff811115611c7557600080fd5b611c8187828801611a38565b91505092959194509250565b600060208284031215611c9f57600080fd5b6000611cad84828501611a62565b91505092915050565b611cbf81612493565b82525050565b611cce81612493565b82525050565b611cdd816124a5565b82525050565b611cec816124a5565b82525050565b6000611cfd82612466565b611d078185612471565b9350611d178185602086016124ea565b611d2081612656565b840191505092915050565b6000611d3682612466565b611d408185612482565b9350611d508185602086016124ea565b611d5981612656565b840191505092915050565b60008154611d718161251d565b611d7b8186612482565b94506001821660008114611d965760018114611da857611ddb565b60ff1983168652602086019350611ddb565b611db185612451565b60005b83811015611dd357815481890152600182019150602081019050611db4565b808801955050505b50505092915050565b6000611df1602683612482565b9150611dfc82612667565b604082019050919050565b6000611e14602883612482565b9150611e1f826126b6565b604082019050919050565b6000611e37602183612482565b9150611e4282612705565b604082019050919050565b6000611e5a601e83612482565b9150611e6582612754565b602082019050919050565b6000611e7d601083612482565b9150611e888261277d565b602082019050919050565b6000611ea0601583612482565b9150611eab826127a6565b602082019050919050565b6000606083016000830151611ece6000860182611cb6565b5060208301518482036020860152611ee68282611cf2565b9150506040830151611efb6040860182611cd4565b508091505092915050565b600060c083016000830151611f1e6000860182611cb6565b5060208301518482036020860152611f368282611cf2565b91505060408301518482036040860152611f508282611cf2565b9150506060830151611f65606086018261207e565b5060808301518482036080860152611f7d8282611cf2565b91505060a0830151611f9260a0860182611cd4565b508091505092915050565b600061012083016000830151611fb6600086018261207e565b506020830151611fc96020860182611cb6565b5060408301518482036040860152611fe18282611cf2565b91505060608301518482036060860152611ffb8282611cf2565b915050608083015184820360808601526120158282611cf2565b91505060a083015184820360a086015261202f8282611cf2565b91505060c083015184820360c08601526120498282611cf2565b91505060e083015161205e60e086018261207e565b5061010083015161207361010086018261207e565b508091505092915050565b612087816124d1565b82525050565b612096816124d1565b82525050565b60006060820190506120b16000830186611cc5565b81810360208301526120c38185611d2b565b90506120d26040830184611ce3565b949350505050565b600060c0820190506120ef6000830189611cc5565b81810360208301526121018188611d2b565b905081810360408301526121158187611d2b565b9050612124606083018661208d565b81810360808301526121368185611d2b565b905061214560a0830184611ce3565b979650505050505050565b6000604082019050818103600083015261216a8185611d2b565b9050818103602083015261217e8184611d2b565b90509392505050565b600060208201905081810360008301526121a081611de4565b9050919050565b600060208201905081810360008301526121c081611e07565b9050919050565b600060208201905081810360008301526121e081611e2a565b9050919050565b6000602082019050818103600083015261220081611e4d565b9050919050565b6000602082019050818103600083015261222081611e70565b9050919050565b6000602082019050818103600083015261224081611e93565b9050919050565b600060208201905081810360008301526122618184611eb6565b905092915050565b600060208201905081810360008301526122838184611f06565b905092915050565b600060208201905081810360008301526122a58184611f9d565b905092915050565b60006020820190506122c2600083018461208d565b92915050565b6000610120820190506122de600083018c61208d565b6122eb602083018b611cc5565b81810360408301526122fd818a611d2b565b905081810360608301526123118189611d2b565b905081810360808301526123258188611d2b565b905081810360a08301526123398187611d2b565b905081810360c083015261234d8186611d2b565b905061235c60e083018561208d565b61236a61010083018461208d565b9a9950505050505050505050565b600060608201905061238d600083018661208d565b818103602083015261239f8185611d2b565b905081810360408301526123b38184611d2b565b9050949350505050565b60006060820190506123d2600083018661208d565b81810360208301526123e48185611d64565b90506123f3604083018461208d565b949350505050565b6000612405612416565b9050612411828261254f565b919050565b6000604051905090565b600067ffffffffffffffff82111561243b5761243a612627565b5b61244482612656565b9050602081019050919050565b60008190508160005260206000209050919050565b600081519050919050565b600082825260208201905092915050565b600082825260208201905092915050565b600061249e826124b1565b9050919050565b60008115159050919050565b600073ffffffffffffffffffffffffffffffffffffffff82169050919050565b6000819050919050565b82818337600083830152505050565b60005b838110156125085780820151818401526020810190506124ed565b83811115612517576000848401525b50505050565b6000600282049050600182168061253557607f821691505b60208210811415612549576125486125f8565b5b50919050565b61255882612656565b810181811067ffffffffffffffff8211171561257757612576612627565b5b80604052505050565b600061258b826124d1565b91507fffffffffffffffffffffffffffffffffffffffffffffffffffffffffffffffff8214156125be576125bd6125c9565b5b600182019050919050565b7f4e487b7100000000000000000000000000000000000000000000000000000000600052601160045260246000fd5b7f4e487b7100000000000000000000000000000000000000000000000000000000600052602260045260246000fd5b7f4e487b7100000000000000000000000000000000000000000000000000000000600052604160045260246000fd5b6000601f19601f8301169050919050565b7f496e73756666696369656e742066756e647320746f207075726368617365207060008201527f726f647563650000000000000000000000000000000000000000000000000000602082015250565b7f4f6e6c792072656769737465726564206661726d6572732063616e206c69737460008201527f2070726f64756365000000000000000000000000000000000000000000000000602082015250565b7f4f6e6c79206d656d626572732063616e2070757263686173652070726f64756360008201527f6500000000000000000000000000000000000000000000000000000000000000602082015250565b7f416c726561647920726567697374657265642061732061206661726d65720000600082015250565b7f416c72656164792061206d656d62657200000000000000000000000000000000600082015250565b7f50726f64756365206e6f7420617661696c61626c650000000000000000000000600082015250565b6127d881612493565b81146127e357600080fd5b50565b6127ef816124d1565b81146127fa57600080fd5b5056fea2646970667358221220061de4d1cce064633dac46955f78c0b437f858a0d8f9cb477f3c60864fa82cb964736f6c63430008020033",
  "immutableReferences": {},
  "source": "// SPDX-License-Identifier: MIT\r\npragma solidity ^0.8.2;\r\n\r\ncontract CSAPlatform {\r\n    // Struct to represent a farmer\r\n    struct Farmer {\r\n        address farmerAddress;\r\n        string name;\r\n        string location;\r\n        uint farmSize; // in acres\r\n        string farmingPractices;\r\n        bool isRegistered;\r\n    }\r\n    \r\n    // Struct to represent produce\r\n    struct Produce {\r\n        uint produceId;\r\n        address farmerAddress;\r\n        string name;\r\n        string description;\r\n        string plantingSchedule;\r\n        string harvestingSchedule;\r\n        string certifications;\r\n        uint price; // Price in wei\r\n        uint availability; // 0 for unavailable, 1 for available\r\n    }\r\n    \r\n    // Struct to represent a consumer\r\n    struct Consumer {\r\n        address consumerAddress;\r\n        string name;\r\n        bool isMember;\r\n    }\r\n    \r\n    // Mapping to store farmers\r\n    mapping(address => Farmer) public farmers;\r\n    \r\n    // Mapping to store produce\r\n    mapping(uint => Produce) public produce;\r\n    uint public produceCount;\r\n    \r\n    // Mapping to store consumers\r\n    mapping(address => Consumer) public consumers;\r\n    \r\n    // Event for farmer registration\r\n    event FarmerRegistered(address indexed farmerAddress, string name, string location);\r\n    \r\n    // Event for produce listing\r\n    event ProduceListed(uint produceId, string name, string description);\r\n    \r\n    // Event for produce purchase\r\n    event ProducePurchased(uint produceId, address indexed buyer, string produceName, uint price);\r\n    \r\n    // Constructor to initialize the contract\r\n    constructor() {\r\n        // Initialize contract state\r\n        farmers[msg.sender] = Farmer(msg.sender, \"Owner\", \"Location\", 100, \"Sustainable\", true);\r\n        emit FarmerRegistered(msg.sender, \"Owner\", \"Location\");\r\n    }\r\n\r\n    // Function to register as a farmer\r\n    function registerAsFarmer(string memory _name, string memory _location, uint _farmSize, string memory _farmingPractices) public {\r\n        require(!farmers[msg.sender].isRegistered, \"Already registered as a farmer\");\r\n        farmers[msg.sender] = Farmer(msg.sender, _name, _location, _farmSize, _farmingPractices, true);\r\n        emit FarmerRegistered(msg.sender, _name, _location);\r\n    }\r\n    \r\n    // Function to list produce\r\n    function listProduce(string memory _name, string memory _description, string memory _plantingSchedule, string memory _harvestingSchedule, string memory _certifications, uint _price) public {\r\n        require(farmers[msg.sender].isRegistered, \"Only registered farmers can list produce\");\r\n        produceCount++;\r\n        produce[produceCount] = Produce(produceCount, msg.sender, _name, _description, _plantingSchedule, _harvestingSchedule, _certifications, _price, 1);\r\n        emit ProduceListed(produceCount, _name, _description);\r\n    }\r\n    \r\n    // Function to become a CSA member\r\n    function becomeMember(string memory _name) public {\r\n        require(!consumers[msg.sender].isMember, \"Already a member\");\r\n        consumers[msg.sender] = Consumer(msg.sender, _name, true);\r\n    }\r\n    \r\n    // Function to purchase produce\r\n    function purchaseProduce(uint _produceId) public payable {\r\n        require(consumers[msg.sender].isMember, \"Only members can purchase produce\");\r\n        Produce storage p = produce[_produceId];\r\n        require(p.availability == 1, \"Produce not available\");\r\n        require(msg.value >= p.price, \"Insufficient funds to purchase produce\");\r\n\r\n        // Transfer the funds to the farmer\r\n        address payable farmerAddress = payable(p.farmerAddress);\r\n        farmerAddress.transfer(msg.value);\r\n\r\n        // Mark the produce as unavailable\r\n        p.availability = 0;\r\n\r\n        emit ProducePurchased(_produceId, msg.sender, p.name, msg.value);\r\n    }\r\n    \r\n    // Function to get produce details\r\n    function getProduceDetails(uint _produceId) public view returns (Produce memory) {\r\n        return produce[_produceId];\r\n    }\r\n\r\n    // Function to get farmer details\r\n    function getFarmerDetails(address _farmerAddress) public view returns (Farmer memory) {\r\n        return farmers[_farmerAddress];\r\n    }\r\n\r\n    // Function to get consumer details\r\n    function getConsumerDetails(address _consumerAddress) public view returns (Consumer memory) {\r\n        return consumers[_consumerAddress];\r\n    }\r\n}\r\n",
  "sourcePath": "/Users/prathamshetty/Desktop/myapp/contracts/CSAplatform.sol",
  "compiler": {
    "name": "solc",
    "version": "0.8.2+commit.661d1103.Emscripten.clang"
  },
  "schemaVersion": "3.4.16",
  "updatedAt": "2024-06-11T08:05:16.491Z",
  "devdoc": {
    "kind": "dev",
    "methods": {},
    "version": 1
  },
  "userdoc": {
    "kind": "user",
    "methods": {},
    "version": 1
  }
}